{
  "_format": "hh-sol-artifact-1",
  "contractName": "GuardianStorage",
  "sourceName": "contracts/storage/GuardianStorage.sol",
  "abi": [
    {
      "inputs": [
        {
          "internalType": "address",
          "name": "_wallet",
          "type": "address"
        },
        {
          "internalType": "address",
          "name": "_guardian",
          "type": "address"
        }
      ],
      "name": "addGuardian",
      "outputs": [],
      "stateMutability": "nonpayable",
      "type": "function"
    },
    {
      "inputs": [
        {
          "internalType": "address",
          "name": "_wallet",
          "type": "address"
        },
        {
          "internalType": "uint256",
          "name": "_threshold",
          "type": "uint256"
        }
      ],
      "name": "changeThreshold",
      "outputs": [],
      "stateMutability": "nonpayable",
      "type": "function"
    },
    {
      "inputs": [
        {
          "internalType": "address",
          "name": "_wallet",
          "type": "address"
        }
      ],
      "name": "getGuardians",
      "outputs": [
        {
          "internalType": "address[]",
          "name": "",
          "type": "address[]"
        }
      ],
      "stateMutability": "view",
      "type": "function"
    },
    {
      "inputs": [
        {
          "internalType": "address",
          "name": "_wallet",
          "type": "address"
        }
      ],
      "name": "guardiansCount",
      "outputs": [
        {
          "internalType": "uint256",
          "name": "",
          "type": "uint256"
        }
      ],
      "stateMutability": "view",
      "type": "function"
    },
    {
      "inputs": [
        {
          "internalType": "address",
          "name": "_wallet",
          "type": "address"
        },
        {
          "internalType": "address",
          "name": "_guardian",
          "type": "address"
        }
      ],
      "name": "isGuardian",
      "outputs": [
        {
          "internalType": "bool",
          "name": "",
          "type": "bool"
        }
      ],
      "stateMutability": "view",
      "type": "function"
    },
    {
      "inputs": [
        {
          "internalType": "address",
          "name": "_wallet",
          "type": "address"
        },
        {
          "internalType": "address",
          "name": "_prevGuardian",
          "type": "address"
        },
        {
          "internalType": "address",
          "name": "_guardian",
          "type": "address"
        }
      ],
      "name": "revokeGuardian",
      "outputs": [],
      "stateMutability": "nonpayable",
      "type": "function"
    },
    {
      "inputs": [
        {
          "internalType": "address",
          "name": "_wallet",
          "type": "address"
        }
      ],
      "name": "threshold",
      "outputs": [
        {
          "internalType": "uint256",
          "name": "",
          "type": "uint256"
        }
      ],
      "stateMutability": "view",
      "type": "function"
    }
  ],
  "bytecode": "0x608060405234801561001057600080fd5b506119cc806100206000396000f3fe608060405234801561001057600080fd5b506004361061007d5760003560e01c8063c86ec2bf1161005b578063c86ec2bf146100ea578063d4ee97341461011a578063de64ee641461014a578063f18858ab146101665761007d565b806357cfebbc14610082578063c026e7ee1461009e578063c6845210146100ce575b600080fd5b61009c60048036038101906100979190611218565b610196565b005b6100b860048036038101906100b39190611258565b610380565b6040516100c59190611294565b60405180910390f35b6100e860048036038101906100e391906112af565b6103cb565b005b61010460048036038101906100ff9190611258565b6109c9565b6040516101119190611294565b60405180910390f35b610134600480360381019061012f91906112af565b610a14565b604051610141919061130a565b60405180910390f35b610164600480360381019061015f9190611325565b610b26565b005b610180600480360381019061017b9190611258565b610f1d565b60405161018d9190611436565b60405180910390f35b818073ffffffffffffffffffffffffffffffffffffffff16632d9ad53d336040518263ffffffff1660e01b81526004016101d09190611467565b602060405180830381865afa1580156101ed573d6000803e3d6000fd5b505050506040513d601f19601f8201168201806040525081019061021191906114ae565b610250576040517f08c379a00000000000000000000000000000000000000000000000000000000081526004016102479061155e565b60405180910390fd5b60008060008573ffffffffffffffffffffffffffffffffffffffff1673ffffffffffffffffffffffffffffffffffffffff168152602001908152602001600020905080600101548311156102d9576040517f08c379a00000000000000000000000000000000000000000000000000000000081526004016102d0906115f0565b60405180910390fd5b600081600101540361032d5760008314610328576040517f08c379a000000000000000000000000000000000000000000000000000000000815260040161031f9061165c565b60405180910390fd5b610371565b60008311610370576040517f08c379a0000000000000000000000000000000000000000000000000000000008152600401610367906116c8565b60405180910390fd5b5b82816002018190555050505050565b60008060008373ffffffffffffffffffffffffffffffffffffffff1673ffffffffffffffffffffffffffffffffffffffff168152602001908152602001600020600101549050919050565b818073ffffffffffffffffffffffffffffffffffffffff16632d9ad53d336040518263ffffffff1660e01b81526004016104059190611467565b602060405180830381865afa158015610422573d6000803e3d6000fd5b505050506040513d601f19601f8201168201806040525081019061044691906114ae565b610485576040517f08c379a000000000000000000000000000000000000000000000000000000000815260040161047c9061155e565b60405180910390fd5b600073ffffffffffffffffffffffffffffffffffffffff168273ffffffffffffffffffffffffffffffffffffffff16141580156104ef5750600173ffffffffffffffffffffffffffffffffffffffff168273ffffffffffffffffffffffffffffffffffffffff1614155b801561052757508273ffffffffffffffffffffffffffffffffffffffff168273ffffffffffffffffffffffffffffffffffffffff1614155b610566576040517f08c379a000000000000000000000000000000000000000000000000000000000815260040161055d90611734565b60405180910390fd5b8273ffffffffffffffffffffffffffffffffffffffff16632f54bf6e836040518263ffffffff1660e01b815260040161059f9190611467565b602060405180830381865afa1580156105bc573d6000803e3d6000fd5b505050506040513d601f19601f820116820180604052508101906105e091906114ae565b15610620576040517f08c379a0000000000000000000000000000000000000000000000000000000008152600401610617906117a0565b60405180910390fd5b60008060008573ffffffffffffffffffffffffffffffffffffffff1673ffffffffffffffffffffffffffffffffffffffff1681526020019081526020016000209050600073ffffffffffffffffffffffffffffffffffffffff168160000160008573ffffffffffffffffffffffffffffffffffffffff1673ffffffffffffffffffffffffffffffffffffffff16815260200190815260200160002060009054906101000a900473ffffffffffffffffffffffffffffffffffffffff1673ffffffffffffffffffffffffffffffffffffffff1614610732576040517f08c379a00000000000000000000000000000000000000000000000000000000081526004016107299061180c565b60405180910390fd5b60008160010154036108455782816000016000600173ffffffffffffffffffffffffffffffffffffffff1673ffffffffffffffffffffffffffffffffffffffff16815260200190815260200160002060006101000a81548173ffffffffffffffffffffffffffffffffffffffff021916908373ffffffffffffffffffffffffffffffffffffffff16021790555060018160000160008573ffffffffffffffffffffffffffffffffffffffff1673ffffffffffffffffffffffffffffffffffffffff16815260200190815260200160002060006101000a81548173ffffffffffffffffffffffffffffffffffffffff021916908373ffffffffffffffffffffffffffffffffffffffff1602179055506109a9565b806000016000600173ffffffffffffffffffffffffffffffffffffffff1673ffffffffffffffffffffffffffffffffffffffff16815260200190815260200160002060009054906101000a900473ffffffffffffffffffffffffffffffffffffffff168160000160008573ffffffffffffffffffffffffffffffffffffffff1673ffffffffffffffffffffffffffffffffffffffff16815260200190815260200160002060006101000a81548173ffffffffffffffffffffffffffffffffffffffff021916908373ffffffffffffffffffffffffffffffffffffffff16021790555082816000016000600173ffffffffffffffffffffffffffffffffffffffff1673ffffffffffffffffffffffffffffffffffffffff16815260200190815260200160002060006101000a81548173ffffffffffffffffffffffffffffffffffffffff021916908373ffffffffffffffffffffffffffffffffffffffff1602179055505b8060010160008154809291906109be9061185b565b919050555050505050565b60008060008373ffffffffffffffffffffffffffffffffffffffff1673ffffffffffffffffffffffffffffffffffffffff168152602001908152602001600020600201549050919050565b6000600173ffffffffffffffffffffffffffffffffffffffff168273ffffffffffffffffffffffffffffffffffffffff1614158015610b1e5750600073ffffffffffffffffffffffffffffffffffffffff166000808573ffffffffffffffffffffffffffffffffffffffff1673ffffffffffffffffffffffffffffffffffffffff16815260200190815260200160002060000160008473ffffffffffffffffffffffffffffffffffffffff1673ffffffffffffffffffffffffffffffffffffffff16815260200190815260200160002060009054906101000a900473ffffffffffffffffffffffffffffffffffffffff1673ffffffffffffffffffffffffffffffffffffffff1614155b905092915050565b828073ffffffffffffffffffffffffffffffffffffffff16632d9ad53d336040518263ffffffff1660e01b8152600401610b609190611467565b602060405180830381865afa158015610b7d573d6000803e3d6000fd5b505050506040513d601f19601f82011682018060405250810190610ba191906114ae565b610be0576040517f08c379a0000000000000000000000000000000000000000000000000000000008152600401610bd79061155e565b60405180910390fd5b60008060008673ffffffffffffffffffffffffffffffffffffffff1673ffffffffffffffffffffffffffffffffffffffff1681526020019081526020016000209050600073ffffffffffffffffffffffffffffffffffffffff168373ffffffffffffffffffffffffffffffffffffffff1614158015610c8c5750600173ffffffffffffffffffffffffffffffffffffffff168373ffffffffffffffffffffffffffffffffffffffff1614155b610ccb576040517f08c379a0000000000000000000000000000000000000000000000000000000008152600401610cc290611734565b60405180910390fd5b8273ffffffffffffffffffffffffffffffffffffffff168160000160008673ffffffffffffffffffffffffffffffffffffffff1673ffffffffffffffffffffffffffffffffffffffff16815260200190815260200160002060009054906101000a900473ffffffffffffffffffffffffffffffffffffffff1673ffffffffffffffffffffffffffffffffffffffff1614610d9a576040517f08c379a0000000000000000000000000000000000000000000000000000000008152600401610d91906118ef565b60405180910390fd5b8060000160008473ffffffffffffffffffffffffffffffffffffffff1673ffffffffffffffffffffffffffffffffffffffff16815260200190815260200160002060009054906101000a900473ffffffffffffffffffffffffffffffffffffffff168160000160008673ffffffffffffffffffffffffffffffffffffffff1673ffffffffffffffffffffffffffffffffffffffff16815260200190815260200160002060006101000a81548173ffffffffffffffffffffffffffffffffffffffff021916908373ffffffffffffffffffffffffffffffffffffffff16021790555060008160000160008573ffffffffffffffffffffffffffffffffffffffff1673ffffffffffffffffffffffffffffffffffffffff16815260200190815260200160002060006101000a81548173ffffffffffffffffffffffffffffffffffffffff021916908373ffffffffffffffffffffffffffffffffffffffff160217905550806001016000815480929190610f119061190f565b91905055505050505050565b606060008060008473ffffffffffffffffffffffffffffffffffffffff1673ffffffffffffffffffffffffffffffffffffffff16815260200190815260200160002090506000816001015403610fbf57600067ffffffffffffffff811115610f8857610f87611938565b5b604051908082528060200260200182016040528015610fb65781602001602082028036833780820191505090505b5091505061117a565b6000816001015467ffffffffffffffff811115610fdf57610fde611938565b5b60405190808252806020026020018201604052801561100d5781602001602082028036833780820191505090505b509050600080836000016000600173ffffffffffffffffffffffffffffffffffffffff1673ffffffffffffffffffffffffffffffffffffffff16815260200190815260200160002060009054906101000a900473ffffffffffffffffffffffffffffffffffffffff1690505b600173ffffffffffffffffffffffffffffffffffffffff168173ffffffffffffffffffffffffffffffffffffffff161461117257808383815181106110c1576110c0611967565b5b602002602001019073ffffffffffffffffffffffffffffffffffffffff16908173ffffffffffffffffffffffffffffffffffffffff16815250508360000160008273ffffffffffffffffffffffffffffffffffffffff1673ffffffffffffffffffffffffffffffffffffffff16815260200190815260200160002060009054906101000a900473ffffffffffffffffffffffffffffffffffffffff169050818061116a9061185b565b925050611079565b829450505050505b919050565b600080fd5b600073ffffffffffffffffffffffffffffffffffffffff82169050919050565b60006111af82611184565b9050919050565b6111bf816111a4565b81146111ca57600080fd5b50565b6000813590506111dc816111b6565b92915050565b6000819050919050565b6111f5816111e2565b811461120057600080fd5b50565b600081359050611212816111ec565b92915050565b6000806040838503121561122f5761122e61117f565b5b600061123d858286016111cd565b925050602061124e85828601611203565b9150509250929050565b60006020828403121561126e5761126d61117f565b5b600061127c848285016111cd565b91505092915050565b61128e816111e2565b82525050565b60006020820190506112a96000830184611285565b92915050565b600080604083850312156112c6576112c561117f565b5b60006112d4858286016111cd565b92505060206112e5858286016111cd565b9150509250929050565b60008115159050919050565b611304816112ef565b82525050565b600060208201905061131f60008301846112fb565b92915050565b60008060006060848603121561133e5761133d61117f565b5b600061134c868287016111cd565b935050602061135d868287016111cd565b925050604061136e868287016111cd565b9150509250925092565b600081519050919050565b600082825260208201905092915050565b6000819050602082019050919050565b6113ad816111a4565b82525050565b60006113bf83836113a4565b60208301905092915050565b6000602082019050919050565b60006113e382611378565b6113ed8185611383565b93506113f883611394565b8060005b8381101561142957815161141088826113b3565b975061141b836113cb565b9250506001810190506113fc565b5085935050505092915050565b6000602082019050818103600083015261145081846113d8565b905092915050565b611461816111a4565b82525050565b600060208201905061147c6000830184611458565b92915050565b61148b816112ef565b811461149657600080fd5b50565b6000815190506114a881611482565b92915050565b6000602082840312156114c4576114c361117f565b5b60006114d284828501611499565b91505092915050565b600082825260208201905092915050565b7f47533a206d6574686f6c64206f6e6c792063616c6c61626c6520627920616e2060008201527f656e61626c6564206d6f64756c65000000000000000000000000000000000000602082015250565b6000611548602e836114db565b9150611553826114ec565b604082019050919050565b600060208201905081810360008301526115778161153b565b9050919050565b7f47533a207468726573686f6c64206d757374206265206c6f776572206f72206560008201527f7175616c20746f20677561726469616e7320636f756e74000000000000000000602082015250565b60006115da6037836114db565b91506115e58261157e565b604082019050919050565b60006020820190508181036000830152611609816115cd565b9050919050565b7f47533a207468726573686f6c64206d7573742062652030000000000000000000600082015250565b60006116466017836114db565b915061165182611610565b602082019050919050565b6000602082019050818103600083015261167581611639565b9050919050565b7f47533a207468726573686f6c642063616e6e6f74206265203000000000000000600082015250565b60006116b26019836114db565b91506116bd8261167c565b602082019050919050565b600060208201905081810360008301526116e1816116a5565b9050919050565b7f47533a20696e76616c696420677561726469616e000000000000000000000000600082015250565b600061171e6014836114db565b9150611729826116e8565b602082019050919050565b6000602082019050818103600083015261174d81611711565b9050919050565b7f47533a20677561726469616e2063616e6e6f7420626520616e206f776e657200600082015250565b600061178a601f836114db565b915061179582611754565b602082019050919050565b600060208201905081810360008301526117b98161177d565b9050919050565b7f47533a206475706c696361746520677561726469616e00000000000000000000600082015250565b60006117f66016836114db565b9150611801826117c0565b602082019050919050565b60006020820190508181036000830152611825816117e9565b9050919050565b7f4e487b7100000000000000000000000000000000000000000000000000000000600052601160045260246000fd5b6000611866826111e2565b91507fffffffffffffffffffffffffffffffffffffffffffffffffffffffffffffffff82036118985761189761182c565b5b600182019050919050565b7f47533a20696e76616c69642070726576696f757320677561726469616e000000600082015250565b60006118d9601d836114db565b91506118e4826118a3565b602082019050919050565b60006020820190508181036000830152611908816118cc565b9050919050565b600061191a826111e2565b91506000820361192d5761192c61182c565b5b600182039050919050565b7f4e487b7100000000000000000000000000000000000000000000000000000000600052604160045260246000fd5b7f4e487b7100000000000000000000000000000000000000000000000000000000600052603260045260246000fdfea2646970667358221220ec02bd4468cff898a6f4d2a67a266bb63023fd5e028d0452f8a5294d6dad60fe64736f6c63430008110033",
  "linkReferences": {},
  "deployedLinkReferences": {}
}