{
  "_format": "hh-sol-artifact-1",
  "contractName": "SocialRecoveryModule",
  "sourceName": "contracts/SocialRecoveryModule.sol",
  "abi": [
    {
      "inputs": [
        {
          "internalType": "contract IGuardianStorage",
          "name": "_guardianStorage",
          "type": "address"
        },
        {
          "internalType": "uint256",
          "name": "_recoveryPeriod",
          "type": "uint256"
        }
      ],
      "stateMutability": "nonpayable",
      "type": "constructor"
    },
    {
      "anonymous": false,
      "inputs": [
        {
          "indexed": true,
          "internalType": "address",
          "name": "wallet",
          "type": "address"
        },
        {
          "indexed": true,
          "internalType": "address",
          "name": "guardian",
          "type": "address"
        },
        {
          "indexed": false,
          "internalType": "uint256",
          "name": "threshold",
          "type": "uint256"
        }
      ],
      "name": "GuardianAdded",
      "type": "event"
    },
    {
      "anonymous": false,
      "inputs": [
        {
          "indexed": true,
          "internalType": "address",
          "name": "wallet",
          "type": "address"
        },
        {
          "indexed": true,
          "internalType": "address",
          "name": "guardian",
          "type": "address"
        },
        {
          "indexed": false,
          "internalType": "uint256",
          "name": "threshold",
          "type": "uint256"
        }
      ],
      "name": "GuardianRevoked",
      "type": "event"
    },
    {
      "anonymous": false,
      "inputs": [
        {
          "indexed": true,
          "internalType": "address",
          "name": "wallet",
          "type": "address"
        },
        {
          "indexed": false,
          "internalType": "uint256",
          "name": "nonce",
          "type": "uint256"
        }
      ],
      "name": "RecoveryCanceled",
      "type": "event"
    },
    {
      "anonymous": false,
      "inputs": [
        {
          "indexed": true,
          "internalType": "address",
          "name": "wallet",
          "type": "address"
        },
        {
          "indexed": true,
          "internalType": "address[]",
          "name": "newOwners",
          "type": "address[]"
        },
        {
          "indexed": false,
          "internalType": "uint256",
          "name": "newThreshold",
          "type": "uint256"
        },
        {
          "indexed": false,
          "internalType": "uint256",
          "name": "nonce",
          "type": "uint256"
        },
        {
          "indexed": false,
          "internalType": "uint64",
          "name": "executeAfter",
          "type": "uint64"
        },
        {
          "indexed": false,
          "internalType": "uint256",
          "name": "guardiansApprovalCount",
          "type": "uint256"
        }
      ],
      "name": "RecoveryExecuted",
      "type": "event"
    },
    {
      "anonymous": false,
      "inputs": [
        {
          "indexed": true,
          "internalType": "address",
          "name": "wallet",
          "type": "address"
        },
        {
          "indexed": true,
          "internalType": "address[]",
          "name": "newOwners",
          "type": "address[]"
        },
        {
          "indexed": false,
          "internalType": "uint256",
          "name": "newThreshold",
          "type": "uint256"
        },
        {
          "indexed": false,
          "internalType": "uint256",
          "name": "nonce",
          "type": "uint256"
        }
      ],
      "name": "RecoveryFinalized",
      "type": "event"
    },
    {
      "inputs": [],
      "name": "NAME",
      "outputs": [
        {
          "internalType": "string",
          "name": "",
          "type": "string"
        }
      ],
      "stateMutability": "view",
      "type": "function"
    },
    {
      "inputs": [],
      "name": "VERSION",
      "outputs": [
        {
          "internalType": "string",
          "name": "",
          "type": "string"
        }
      ],
      "stateMutability": "view",
      "type": "function"
    },
    {
      "inputs": [
        {
          "internalType": "address",
          "name": "_wallet",
          "type": "address"
        },
        {
          "internalType": "address",
          "name": "_guardian",
          "type": "address"
        },
        {
          "internalType": "uint256",
          "name": "_threshold",
          "type": "uint256"
        }
      ],
      "name": "addGuardianWithThreshold",
      "outputs": [],
      "stateMutability": "nonpayable",
      "type": "function"
    },
    {
      "inputs": [
        {
          "internalType": "address",
          "name": "_wallet",
          "type": "address"
        }
      ],
      "name": "cancelRecovery",
      "outputs": [],
      "stateMutability": "nonpayable",
      "type": "function"
    },
    {
      "inputs": [
        {
          "internalType": "address",
          "name": "_wallet",
          "type": "address"
        },
        {
          "internalType": "uint256",
          "name": "_threshold",
          "type": "uint256"
        }
      ],
      "name": "changeThreshold",
      "outputs": [],
      "stateMutability": "nonpayable",
      "type": "function"
    },
    {
      "inputs": [
        {
          "internalType": "address",
          "name": "_wallet",
          "type": "address"
        },
        {
          "internalType": "address[]",
          "name": "_newOwners",
          "type": "address[]"
        },
        {
          "internalType": "uint256",
          "name": "_newThreshold",
          "type": "uint256"
        },
        {
          "internalType": "bool",
          "name": "_execute",
          "type": "bool"
        }
      ],
      "name": "confirmRecovery",
      "outputs": [],
      "stateMutability": "nonpayable",
      "type": "function"
    },
    {
      "inputs": [],
      "name": "domainSeparator",
      "outputs": [
        {
          "internalType": "bytes32",
          "name": "",
          "type": "bytes32"
        }
      ],
      "stateMutability": "view",
      "type": "function"
    },
    {
      "inputs": [
        {
          "internalType": "address",
          "name": "_wallet",
          "type": "address"
        },
        {
          "internalType": "address[]",
          "name": "_newOwners",
          "type": "address[]"
        },
        {
          "internalType": "uint256",
          "name": "_newThreshold",
          "type": "uint256"
        },
        {
          "internalType": "uint256",
          "name": "_nonce",
          "type": "uint256"
        }
      ],
      "name": "encodeRecoveryData",
      "outputs": [
        {
          "internalType": "bytes",
          "name": "",
          "type": "bytes"
        }
      ],
      "stateMutability": "view",
      "type": "function"
    },
    {
      "inputs": [
        {
          "internalType": "address",
          "name": "_wallet",
          "type": "address"
        },
        {
          "internalType": "address[]",
          "name": "_newOwners",
          "type": "address[]"
        },
        {
          "internalType": "uint256",
          "name": "_newThreshold",
          "type": "uint256"
        }
      ],
      "name": "executeRecovery",
      "outputs": [],
      "stateMutability": "nonpayable",
      "type": "function"
    },
    {
      "inputs": [
        {
          "internalType": "address",
          "name": "_wallet",
          "type": "address"
        }
      ],
      "name": "finalizeRecovery",
      "outputs": [],
      "stateMutability": "nonpayable",
      "type": "function"
    },
    {
      "inputs": [],
      "name": "getChainId",
      "outputs": [
        {
          "internalType": "uint256",
          "name": "",
          "type": "uint256"
        }
      ],
      "stateMutability": "view",
      "type": "function"
    },
    {
      "inputs": [
        {
          "internalType": "address",
          "name": "_wallet",
          "type": "address"
        }
      ],
      "name": "getGuardians",
      "outputs": [
        {
          "internalType": "address[]",
          "name": "_guardians",
          "type": "address[]"
        }
      ],
      "stateMutability": "view",
      "type": "function"
    },
    {
      "inputs": [
        {
          "internalType": "address",
          "name": "_wallet",
          "type": "address"
        },
        {
          "internalType": "address[]",
          "name": "_newOwners",
          "type": "address[]"
        },
        {
          "internalType": "uint256",
          "name": "_newThreshold",
          "type": "uint256"
        }
      ],
      "name": "getRecoveryApprovals",
      "outputs": [
        {
          "internalType": "uint256",
          "name": "approvalCount",
          "type": "uint256"
        }
      ],
      "stateMutability": "view",
      "type": "function"
    },
    {
      "inputs": [
        {
          "internalType": "address",
          "name": "_wallet",
          "type": "address"
        },
        {
          "internalType": "address[]",
          "name": "_newOwners",
          "type": "address[]"
        },
        {
          "internalType": "uint256",
          "name": "_newThreshold",
          "type": "uint256"
        },
        {
          "internalType": "uint256",
          "name": "_nonce",
          "type": "uint256"
        }
      ],
      "name": "getRecoveryHash",
      "outputs": [
        {
          "internalType": "bytes32",
          "name": "",
          "type": "bytes32"
        }
      ],
      "stateMutability": "view",
      "type": "function"
    },
    {
      "inputs": [
        {
          "internalType": "address",
          "name": "_wallet",
          "type": "address"
        }
      ],
      "name": "getRecoveryRequest",
      "outputs": [
        {
          "components": [
            {
              "internalType": "uint256",
              "name": "guardiansApprovalCount",
              "type": "uint256"
            },
            {
              "internalType": "uint256",
              "name": "newThreshold",
              "type": "uint256"
            },
            {
              "internalType": "uint64",
              "name": "executeAfter",
              "type": "uint64"
            },
            {
              "internalType": "address[]",
              "name": "newOwners",
              "type": "address[]"
            }
          ],
          "internalType": "struct SocialRecoveryModule.RecoveryRequest",
          "name": "request",
          "type": "tuple"
        }
      ],
      "stateMutability": "view",
      "type": "function"
    },
    {
      "inputs": [
        {
          "internalType": "address",
          "name": "_wallet",
          "type": "address"
        }
      ],
      "name": "guardiansCount",
      "outputs": [
        {
          "internalType": "uint256",
          "name": "_count",
          "type": "uint256"
        }
      ],
      "stateMutability": "view",
      "type": "function"
    },
    {
      "inputs": [
        {
          "internalType": "address",
          "name": "_wallet",
          "type": "address"
        },
        {
          "internalType": "address",
          "name": "_guardian",
          "type": "address"
        },
        {
          "internalType": "address[]",
          "name": "_newOwners",
          "type": "address[]"
        },
        {
          "internalType": "uint256",
          "name": "_newThreshold",
          "type": "uint256"
        }
      ],
      "name": "hasGuardianApproved",
      "outputs": [
        {
          "internalType": "bool",
          "name": "",
          "type": "bool"
        }
      ],
      "stateMutability": "view",
      "type": "function"
    },
    {
      "inputs": [
        {
          "internalType": "address",
          "name": "_wallet",
          "type": "address"
        },
        {
          "internalType": "address",
          "name": "_guardian",
          "type": "address"
        }
      ],
      "name": "isGuardian",
      "outputs": [
        {
          "internalType": "bool",
          "name": "_isGuardian",
          "type": "bool"
        }
      ],
      "stateMutability": "view",
      "type": "function"
    },
    {
      "inputs": [
        {
          "internalType": "address",
          "name": "_wallet",
          "type": "address"
        },
        {
          "internalType": "address[]",
          "name": "_newOwners",
          "type": "address[]"
        },
        {
          "internalType": "uint256",
          "name": "_newThreshold",
          "type": "uint256"
        },
        {
          "components": [
            {
              "internalType": "address",
              "name": "signer",
              "type": "address"
            },
            {
              "internalType": "bytes",
              "name": "signature",
              "type": "bytes"
            }
          ],
          "internalType": "struct SocialRecoveryModule.SignatureData[]",
          "name": "_signatures",
          "type": "tuple[]"
        },
        {
          "internalType": "bool",
          "name": "_execute",
          "type": "bool"
        }
      ],
      "name": "multiConfirmRecovery",
      "outputs": [],
      "stateMutability": "nonpayable",
      "type": "function"
    },
    {
      "inputs": [
        {
          "internalType": "address",
          "name": "_wallet",
          "type": "address"
        }
      ],
      "name": "nonce",
      "outputs": [
        {
          "internalType": "uint256",
          "name": "_nonce",
          "type": "uint256"
        }
      ],
      "stateMutability": "view",
      "type": "function"
    },
    {
      "inputs": [
        {
          "internalType": "address",
          "name": "_wallet",
          "type": "address"
        },
        {
          "internalType": "address",
          "name": "_prevGuardian",
          "type": "address"
        },
        {
          "internalType": "address",
          "name": "_guardian",
          "type": "address"
        },
        {
          "internalType": "uint256",
          "name": "_threshold",
          "type": "uint256"
        }
      ],
      "name": "revokeGuardianWithThreshold",
      "outputs": [],
      "stateMutability": "nonpayable",
      "type": "function"
    },
    {
      "inputs": [
        {
          "internalType": "address",
          "name": "_wallet",
          "type": "address"
        }
      ],
      "name": "threshold",
      "outputs": [
        {
          "internalType": "uint256",
          "name": "_threshold",
          "type": "uint256"
        }
      ],
      "stateMutability": "view",
      "type": "function"
    },
    {
      "inputs": [
        {
          "internalType": "address",
          "name": "_wallet",
          "type": "address"
        },
        {
          "internalType": "bytes32",
          "name": "_signHash",
          "type": "bytes32"
        },
        {
          "internalType": "address",
          "name": "_signer",
          "type": "address"
        },
        {
          "internalType": "bytes",
          "name": "_signature",
          "type": "bytes"
        }
      ],
      "name": "validateGuardianSignature",
      "outputs": [],
      "stateMutability": "view",
      "type": "function"
    }
  ],
  "bytecode": "0x60c06040523480156200001157600080fd5b5060405162004fb838038062004fb8833981810160405281019062000037919062000134565b8173ffffffffffffffffffffffffffffffffffffffff1660808173ffffffffffffffffffffffffffffffffffffffff16815250508060a0818152505050506200017b565b600080fd5b600073ffffffffffffffffffffffffffffffffffffffff82169050919050565b6000620000ad8262000080565b9050919050565b6000620000c182620000a0565b9050919050565b620000d381620000b4565b8114620000df57600080fd5b50565b600081519050620000f381620000c8565b92915050565b6000819050919050565b6200010e81620000f9565b81146200011a57600080fd5b50565b6000815190506200012e8162000103565b92915050565b600080604083850312156200014e576200014d6200007b565b5b60006200015e85828601620000e2565b925050602062000171858286016200011d565b9150509250929050565b60805160a051614dd8620001e0600039600061278c015260008181610b2a01528181610c1501528181610ca401528181611a7c01528181611cd501528181611d6201528181611fe6015281816120890152818161235801526123fe0152614dd86000f3fe608060405234801561001057600080fd5b506004361061014d5760003560e01c806370ae92d2116100c3578063c86ec2bf1161007c578063c86ec2bf146103be578063c90db447146103ee578063d4ee97341461040a578063f18858ab1461043a578063f698da251461046a578063ffa1ad74146104885761014d565b806370ae92d2146102ec5780639b890b701461031c578063a3f4df7e14610338578063b00c57c514610356578063b1f85f6914610372578063c026e7ee1461038e5761014d565b80633408e470116101155780633408e470146101f257806337d82c36146102105780634f9a28b91461024057806357cfebbc146102705780635f19df081461028c5780636c6595ca146102bc5761014d565b8063064e2d0e146101525780630728e1e71461016e5780631a0487a01461018a5780631e01c4f0146101a6578063315a7af3146101d6575b600080fd5b61016c60048036038101906101679190612ec8565b6104a6565b005b610188600480360381019061018391906131e8565b610699565b005b6101a4600480360381019061019f919061329e565b610a6e565b005b6101c060048036038101906101bb9190613305565b610d9c565b6040516101cd919061340c565b60405180910390f35b6101f060048036038101906101eb919061342e565b610e5d565b005b6101fa611841565b604051610207919061346a565b60405180910390f35b61022a60048036038101906102259190613485565b61184e565b604051610237919061351c565b60405180910390f35b61025a6004803603810190610255919061342e565b6118df565b604051610267919061368a565b60405180910390f35b61028a600480360381019061028591906136ac565b611a0b565b005b6102a660048036038101906102a19190613305565b611b0c565b6040516102b39190613705565b60405180910390f35b6102d660048036038101906102d19190613720565b611b2d565b6040516102e3919061346a565b60405180910390f35b6103066004803603810190610301919061342e565b611c1b565b604051610313919061346a565b60405180910390f35b61033660048036038101906103319190613794565b611c64565b005b610340611e58565b60405161034d919061383c565b60405180910390f35b610370600480360381019061036b919061388a565b611e91565b005b61038c60048036038101906103879190613720565b611f2a565b005b6103a860048036038101906103a3919061342e565b611fe2565b6040516103b5919061346a565b60405180910390f35b6103d860048036038101906103d3919061342e565b612085565b6040516103e5919061346a565b60405180910390f35b6104086004803603810190610403919061342e565b612128565b005b610424600480360381019061041f919061390d565b612354565b604051610431919061351c565b60405180910390f35b610454600480360381019061044f919061342e565b6123fa565b60405161046191906139bc565b60405180910390f35b6104726124a2565b60405161047f9190613705565b60405180910390f35b6104906125b8565b60405161049d919061383c565b60405180910390f35b6104b08533612354565b6104ef576040517f08c379a00000000000000000000000000000000000000000000000000000000081526004016104e690613a2a565b60405180910390fd5b60008484905011610535576040517f08c379a000000000000000000000000000000000000000000000000000000000815260040161052c90613a96565b60405180910390fd5b6000821180156105485750818484905010155b610587576040517f08c379a000000000000000000000000000000000000000000000000000000000815260040161057e90613b02565b60405180910390fd5b600061059286611c1b565b905060006105a38787878786610d9c565b805190602001209050600180600083815260200190815260200160002060003373ffffffffffffffffffffffffffffffffffffffff1673ffffffffffffffffffffffffffffffffffffffff16815260200190815260200160002060006101000a81548160ff02191690831515021790555082610620575050610692565b600061062b88612085565b9050600061063b89898989611b2d565b905081811015610680576040517f08c379a000000000000000000000000000000000000000000000000000000000815260040161067790613b94565b60405180910390fd5b61068d89898989856125f1565b505050505b5050505050565b600085859050116106df576040517f08c379a00000000000000000000000000000000000000000000000000000000081526004016106d690613a96565b60405180910390fd5b6000831180156106f25750828585905010155b610731576040517f08c379a000000000000000000000000000000000000000000000000000000000815260040161072890613b02565b60405180910390fd5b6000825111610775576040517f08c379a000000000000000000000000000000000000000000000000000000000815260040161076c90613c00565b60405180910390fd5b600061078087612085565b9050600081116107c5576040517f08c379a00000000000000000000000000000000000000000000000000000000081526004016107bc90613c6c565b60405180910390fd5b60006107d088611c1b565b905060006107e18989898986610d9c565b8051906020012090506000805b86518110156109f157600087828151811061080c5761080b613c8c565b5b602002602001015190506000816020015151036108e35761082d8c33612354565b61086c576040517f08c379a000000000000000000000000000000000000000000000000000000000815260040161086390613a2a565b60405180910390fd5b806000015173ffffffffffffffffffffffffffffffffffffffff163373ffffffffffffffffffffffffffffffffffffffff16146108de576040517f08c379a00000000000000000000000000000000000000000000000000000000081526004016108d590613d2d565b60405180910390fd5b6108f8565b6108f78c8583600001518460200151611e91565b5b8273ffffffffffffffffffffffffffffffffffffffff16816000015173ffffffffffffffffffffffffffffffffffffffff161161096a576040517f08c379a000000000000000000000000000000000000000000000000000000000815260040161096190613dbf565b60405180910390fd5b60018060008681526020019081526020016000206000836000015173ffffffffffffffffffffffffffffffffffffffff1673ffffffffffffffffffffffffffffffffffffffff16815260200190815260200160002060006101000a81548160ff021916908315150217905550806000015192505080806109e990613e0e565b9150506107ee565b5084610a005750505050610a66565b6000610a0e8b8b8b8b611b2d565b905084811015610a53576040517f08c379a0000000000000000000000000000000000000000000000000000000008152600401610a4a90613b94565b60405180910390fd5b610a608b8b8b8b856125f1565b50505050505b505050505050565b838073ffffffffffffffffffffffffffffffffffffffff163373ffffffffffffffffffffffffffffffffffffffff1614610add576040517f08c379a0000000000000000000000000000000000000000000000000000000008152600401610ad490613ea2565b60405180910390fd5b610ae78584612354565b610b26576040517f08c379a0000000000000000000000000000000000000000000000000000000008152600401610b1d90613f0e565b60405180910390fd5b60007f000000000000000000000000000000000000000000000000000000000000000073ffffffffffffffffffffffffffffffffffffffff1663c026e7ee876040518263ffffffff1660e01b8152600401610b819190613f3d565b602060405180830381865afa158015610b9e573d6000803e3d6000fd5b505050506040513d601f19601f82011682018060405250810190610bc29190613f6d565b905082600182610bd29190613f9a565b1015610c13576040517f08c379a0000000000000000000000000000000000000000000000000000000008152600401610c0a9061401a565b60405180910390fd5b7f000000000000000000000000000000000000000000000000000000000000000073ffffffffffffffffffffffffffffffffffffffff1663de64ee648787876040518463ffffffff1660e01b8152600401610c709392919061403a565b600060405180830381600087803b158015610c8a57600080fd5b505af1158015610c9e573d6000803e3d6000fd5b505050507f000000000000000000000000000000000000000000000000000000000000000073ffffffffffffffffffffffffffffffffffffffff166357cfebbc87856040518363ffffffff1660e01b8152600401610cfd929190614071565b600060405180830381600087803b158015610d1757600080fd5b505af1158015610d2b573d6000803e3d6000fd5b505050508373ffffffffffffffffffffffffffffffffffffffff168673ffffffffffffffffffffffffffffffffffffffff167f27467b5307d3e9459421094efd94d076b4c6f8d00b78d5a12a3cecef307f0c4f85604051610d8c919061346a565b60405180910390a3505050505050565b606060007f124b64921a7c7e677c6cc3b132eaaa57130bc6fc05ab157f35fe5264a7c198d560001b878787604051602001610dd8929190614157565b604051602081830303815290604052805190602001208686604051602001610e04959493929190614170565b604051602081830303815290604052805190602001209050601960f81b600160f81b610e2e6124a2565b83604051602001610e429493929190614231565b60405160208183030381529060405291505095945050505050565b8060008060008373ffffffffffffffffffffffffffffffffffffffff1673ffffffffffffffffffffffffffffffffffffffff16815260200190815260200160002060020160009054906101000a900467ffffffffffffffff1667ffffffffffffffff1611610f00576040517f08c379a0000000000000000000000000000000000000000000000000000000008152600401610ef7906142cb565b60405180910390fd5b60008060008473ffffffffffffffffffffffffffffffffffffffff1673ffffffffffffffffffffffffffffffffffffffff16815260200190815260200160002090508060020160009054906101000a900467ffffffffffffffff1667ffffffffffffffff164267ffffffffffffffff161015610fb1576040517f08c379a0000000000000000000000000000000000000000000000000000000008152600401610fa89061435d565b60405180910390fd5b60008160030180548060200260200160405190810160405280929190818152602001828054801561103757602002820191906000526020600020905b8160009054906101000a900473ffffffffffffffffffffffffffffffffffffffff1673ffffffffffffffffffffffffffffffffffffffff1681526020019060010190808311610fed575b505050505090506000826001015490506000808673ffffffffffffffffffffffffffffffffffffffff1673ffffffffffffffffffffffffffffffffffffffff16815260200190815260200160002060008082016000905560018201600090556002820160006101000a81549067ffffffffffffffff02191690556003820160006110c19190612c89565b5050600085905060008173ffffffffffffffffffffffffffffffffffffffff1663a0e67e2b6040518163ffffffff1660e01b8152600401600060405180830381865afa158015611115573d6000803e3d6000fd5b505050506040513d6000823e3d601f19601f8201168201806040525081019061113e9190614455565b90506000600182516111509190613f9a565b90505b60008111156112d05760008373ffffffffffffffffffffffffffffffffffffffff1663468721a78a60008660018761118b9190613f9a565b8151811061119c5761119b613c8c565b5b60200260200101518787815181106111b7576111b6613c8c565b5b602002602001015160016040516024016111d3939291906144e3565b60405160208183030381529060405263f8dc5dd960e01b6020820180517bffffffffffffffffffffffffffffffffffffffffffffffffffffffff838183161783525050505060006040518563ffffffff1660e01b815260040161123994939291906145cc565b6020604051808303816000875af1158015611258573d6000803e3d6000fd5b505050506040513d601f19601f8201168201806040525081019061127c919061462d565b9050806112be576040517f08c379a00000000000000000000000000000000000000000000000000000000081526004016112b5906146a6565b60405180910390fd5b50806112c9906146c6565b9050611153565b5060005b845181101561165e57611301888683815181106112f4576112f3613c8c565b5b6020026020010151612354565b15611341576040517f08c379a00000000000000000000000000000000000000000000000000000000081526004016113389061473b565b60405180910390fd5b60008082036115115782828151811061135d5761135c613c8c565b5b602002602001015173ffffffffffffffffffffffffffffffffffffffff1686838151811061138e5761138d613c8c565b5b602002602001015173ffffffffffffffffffffffffffffffffffffffff16036113b7575061164b565b8373ffffffffffffffffffffffffffffffffffffffff1663468721a78a600060018787815181106113eb576113ea613c8c565b5b60200260200101518b888151811061140657611405613c8c565b5b60200260200101516040516024016114209392919061403a565b60405160208183030381529060405263e318b52b60e01b6020820180517bffffffffffffffffffffffffffffffffffffffffffffffffffffffff838183161783525050505060006040518563ffffffff1660e01b815260040161148694939291906145cc565b6020604051808303816000875af11580156114a5573d6000803e3d6000fd5b505050506040513d601f19601f820116820180604052508101906114c9919061462d565b90508061150b576040517f08c379a0000000000000000000000000000000000000000000000000000000008152600401611502906147a7565b60405180910390fd5b5061164b565b8373ffffffffffffffffffffffffffffffffffffffff1663468721a78a600089868151811061154357611542613c8c565b5b6020026020010151600160405160240161155e9291906147c7565b604051602081830303815290604052630d582f1360e01b6020820180517bffffffffffffffffffffffffffffffffffffffffffffffffffffffff838183161783525050505060006040518563ffffffff1660e01b81526004016115c494939291906145cc565b6020604051808303816000875af11580156115e3573d6000803e3d6000fd5b505050506040513d601f19601f82011682018060405250810190611607919061462d565b905080611649576040517f08c379a00000000000000000000000000000000000000000000000000000000081526004016116409061483c565b60405180910390fd5b505b808061165690613e0e565b9150506112d4565b5060018311156117875760008273ffffffffffffffffffffffffffffffffffffffff1663468721a78960008760405160240161169a919061346a565b60405160208183030381529060405263694e80c360e01b6020820180517bffffffffffffffffffffffffffffffffffffffffffffffffffffffff838183161783525050505060006040518563ffffffff1660e01b815260040161170094939291906145cc565b6020604051808303816000875af115801561171f573d6000803e3d6000fd5b505050506040513d601f19601f82011682018060405250810190611743919061462d565b905080611785576040517f08c379a000000000000000000000000000000000000000000000000000000000815260040161177c906148a8565b60405180910390fd5b505b836040516117959190614926565b60405180910390208773ffffffffffffffffffffffffffffffffffffffff167f8f02bbdd0d302f6cdd4a448157ae4156c07384b648beae077292ba804d60ad5a856001600260008d73ffffffffffffffffffffffffffffffffffffffff1673ffffffffffffffffffffffffffffffffffffffff168152602001908152602001600020546118229190613f9a565b60405161183092919061493d565b60405180910390a350505050505050565b6000804690508091505090565b60008061185a87611c1b565b9050600061186b8887878786610d9c565b8051906020012090506001600082815260200190815260200160002060008873ffffffffffffffffffffffffffffffffffffffff1673ffffffffffffffffffffffffffffffffffffffff16815260200190815260200160002060009054906101000a900460ff169250505095945050505050565b6118e7612caa565b6000808373ffffffffffffffffffffffffffffffffffffffff1673ffffffffffffffffffffffffffffffffffffffff16815260200190815260200160002060405180608001604052908160008201548152602001600182015481526020016002820160009054906101000a900467ffffffffffffffff1667ffffffffffffffff1667ffffffffffffffff168152602001600382018054806020026020016040519081016040528092919081815260200182805480156119fb57602002820191906000526020600020905b8160009054906101000a900473ffffffffffffffffffffffffffffffffffffffff1673ffffffffffffffffffffffffffffffffffffffff16815260200190600101908083116119b1575b5050505050815250509050919050565b818073ffffffffffffffffffffffffffffffffffffffff163373ffffffffffffffffffffffffffffffffffffffff1614611a7a576040517f08c379a0000000000000000000000000000000000000000000000000000000008152600401611a7190613ea2565b60405180910390fd5b7f000000000000000000000000000000000000000000000000000000000000000073ffffffffffffffffffffffffffffffffffffffff166357cfebbc84846040518363ffffffff1660e01b8152600401611ad5929190614071565b600060405180830381600087803b158015611aef57600080fd5b505af1158015611b03573d6000803e3d6000fd5b50505050505050565b6000611b1b8686868686610d9c565b80519060200120905095945050505050565b600080611b3986611c1b565b90506000611b4a8787878786610d9c565b8051906020012090506000611b5e886123fa565b90506000935060005b8151811015611c0f57600160008481526020019081526020016000206000838381518110611b9857611b97613c8c565b5b602002602001015173ffffffffffffffffffffffffffffffffffffffff1673ffffffffffffffffffffffffffffffffffffffff16815260200190815260200160002060009054906101000a900460ff1615611bfc578480611bf890613e0e565b9550505b8080611c0790613e0e565b915050611b67565b50505050949350505050565b6000600260008373ffffffffffffffffffffffffffffffffffffffff1673ffffffffffffffffffffffffffffffffffffffff168152602001908152602001600020549050919050565b828073ffffffffffffffffffffffffffffffffffffffff163373ffffffffffffffffffffffffffffffffffffffff1614611cd3576040517f08c379a0000000000000000000000000000000000000000000000000000000008152600401611cca90613ea2565b60405180910390fd5b7f000000000000000000000000000000000000000000000000000000000000000073ffffffffffffffffffffffffffffffffffffffff1663c684521085856040518363ffffffff1660e01b8152600401611d2e929190614966565b600060405180830381600087803b158015611d4857600080fd5b505af1158015611d5c573d6000803e3d6000fd5b505050507f000000000000000000000000000000000000000000000000000000000000000073ffffffffffffffffffffffffffffffffffffffff166357cfebbc85846040518363ffffffff1660e01b8152600401611dbb929190614071565b600060405180830381600087803b158015611dd557600080fd5b505af1158015611de9573d6000803e3d6000fd5b505050508273ffffffffffffffffffffffffffffffffffffffff168473ffffffffffffffffffffffffffffffffffffffff167f6d0391926fd0fcb9e582cc3f9b1d2302bfd0866212cc067d5b137352a23a41bc84604051611e4a919061346a565b60405180910390a350505050565b6040518060400160405280601681526020017f536f6369616c205265636f76657279204d6f64756c650000000000000000000081525081565b611e9b8483612354565b611eda576040517f08c379a0000000000000000000000000000000000000000000000000000000008152600401611ed1906149db565b60405180910390fd5b611ee5828483612990565b611f24576040517f08c379a0000000000000000000000000000000000000000000000000000000008152600401611f1b90614a47565b60405180910390fd5b50505050565b6000611f3585612085565b905060008111611f7a576040517f08c379a0000000000000000000000000000000000000000000000000000000008152600401611f7190613c6c565b60405180910390fd5b6000611f8886868686611b2d565b905081811015611fcd576040517f08c379a0000000000000000000000000000000000000000000000000000000008152600401611fc490613b94565b60405180910390fd5b611fda86868686856125f1565b505050505050565b60007f000000000000000000000000000000000000000000000000000000000000000073ffffffffffffffffffffffffffffffffffffffff1663c026e7ee836040518263ffffffff1660e01b815260040161203d9190613f3d565b602060405180830381865afa15801561205a573d6000803e3d6000fd5b505050506040513d601f19601f8201168201806040525081019061207e9190613f6d565b9050919050565b60007f000000000000000000000000000000000000000000000000000000000000000073ffffffffffffffffffffffffffffffffffffffff1663c86ec2bf836040518263ffffffff1660e01b81526004016120e09190613f3d565b602060405180830381865afa1580156120fd573d6000803e3d6000fd5b505050506040513d601f19601f820116820180604052508101906121219190613f6d565b9050919050565b808073ffffffffffffffffffffffffffffffffffffffff163373ffffffffffffffffffffffffffffffffffffffff1614612197576040517f08c379a000000000000000000000000000000000000000000000000000000000815260040161218e90613ea2565b60405180910390fd5b8160008060008373ffffffffffffffffffffffffffffffffffffffff1673ffffffffffffffffffffffffffffffffffffffff16815260200190815260200160002060020160009054906101000a900467ffffffffffffffff1667ffffffffffffffff161161223a576040517f08c379a0000000000000000000000000000000000000000000000000000000008152600401612231906142cb565b60405180910390fd5b6000808473ffffffffffffffffffffffffffffffffffffffff1673ffffffffffffffffffffffffffffffffffffffff16815260200190815260200160002060008082016000905560018201600090556002820160006101000a81549067ffffffffffffffff02191690556003820160006122b49190612c89565b50508273ffffffffffffffffffffffffffffffffffffffff167f81da66c7aac3ee4365918a5d70f73e846a59e8a8af01ef155e865181904905196001600260008773ffffffffffffffffffffffffffffffffffffffff1673ffffffffffffffffffffffffffffffffffffffff1681526020019081526020016000205461233a9190613f9a565b604051612347919061346a565b60405180910390a2505050565b60007f000000000000000000000000000000000000000000000000000000000000000073ffffffffffffffffffffffffffffffffffffffff1663d4ee973484846040518363ffffffff1660e01b81526004016123b1929190614966565b602060405180830381865afa1580156123ce573d6000803e3d6000fd5b505050506040513d601f19601f820116820180604052508101906123f2919061462d565b905092915050565b60607f000000000000000000000000000000000000000000000000000000000000000073ffffffffffffffffffffffffffffffffffffffff1663f18858ab836040518263ffffffff1660e01b81526004016124559190613f3d565b600060405180830381865afa158015612472573d6000803e3d6000fd5b505050506040513d6000823e3d601f19601f8201168201806040525081019061249b9190614455565b9050919050565b60007f8b73c3c69bb8fe3d512ecc4cf759cc79239f7b179b0ffacaa9a75d522b39400f60001b6040518060400160405280601681526020017f536f6369616c205265636f76657279204d6f64756c650000000000000000000081525060405160200161250e9190614aa3565b604051602081830303815290604052805190602001206040518060400160405280600581526020017f302e302e3100000000000000000000000000000000000000000000000000000081525060405160200161256a9190614aa3565b60405160208183030381529060405280519060200120612588611841565b3060405160200161259d959493929190614b0f565b60405160208183030381529060405280519060200120905090565b6040518060400160405280600581526020017f302e302e3100000000000000000000000000000000000000000000000000000081525081565b60006125fc86611c1b565b905060008060008873ffffffffffffffffffffffffffffffffffffffff1673ffffffffffffffffffffffffffffffffffffffff168152602001908152602001600020905060008160020160009054906101000a900467ffffffffffffffff1667ffffffffffffffff16111561278857806000015483116126b1576040517f08c379a00000000000000000000000000000000000000000000000000000000081526004016126a890614bd4565b60405180910390fd5b6000808873ffffffffffffffffffffffffffffffffffffffff1673ffffffffffffffffffffffffffffffffffffffff16815260200190815260200160002060008082016000905560018201600090556002820160006101000a81549067ffffffffffffffff021916905560038201600061272b9190612c89565b50508673ffffffffffffffffffffffffffffffffffffffff167f81da66c7aac3ee4365918a5d70f73e846a59e8a8af01ef155e865181904905196001846127729190613f9a565b60405161277f919061346a565b60405180910390a25b60007f0000000000000000000000000000000000000000000000000000000000000000426127b69190614bf4565b905060405180608001604052808581526020018681526020018267ffffffffffffffff168152602001888880806020026020016040519081016040528093929190818152602001838360200280828437600081840152601f19601f820116905080830192505050505050508152506000808a73ffffffffffffffffffffffffffffffffffffffff1673ffffffffffffffffffffffffffffffffffffffff168152602001908152602001600020600082015181600001556020820151816001015560408201518160020160006101000a81548167ffffffffffffffff021916908367ffffffffffffffff16021790555060608201518160030190805190602001906128c1929190612cdc565b50905050600260008973ffffffffffffffffffffffffffffffffffffffff1673ffffffffffffffffffffffffffffffffffffffff168152602001908152602001600020600081548092919061291590613e0e565b9190505550868660405161292a929190614157565b60405180910390208873ffffffffffffffffffffffffffffffffffffffff167f1fa74635dcccfa96011b50295a26dd08b8c3c6ca7d66ede450288192674ebf018786858960405161297e9493929190614c37565b60405180910390a35050505050505050565b600080600061299f8585612b56565b91509150600060048111156129b7576129b6614555565b5b8160048111156129ca576129c9614555565b5b148015612a0257508573ffffffffffffffffffffffffffffffffffffffff168273ffffffffffffffffffffffffffffffffffffffff16145b15612a1257600192505050612b4f565b6000808773ffffffffffffffffffffffffffffffffffffffff16631626ba7e60e01b8888604051602401612a47929190614c7c565b604051602081830303815290604052907bffffffffffffffffffffffffffffffffffffffffffffffffffffffff19166020820180517bffffffffffffffffffffffffffffffffffffffffffffffffffffffff8381831617835250505050604051612ab19190614ce8565b600060405180830381855afa9150503d8060008114612aec576040519150601f19603f3d011682016040523d82523d6000602084013e612af1565b606091505b5091509150818015612b04575060208151145b8015612b485750631626ba7e60e01b7bffffffffffffffffffffffffffffffffffffffffffffffffffffffff191681806020019051810190612b469190614d14565b145b9450505050505b9392505050565b6000806041835103612b975760008060006020860151925060408601519150606086015160001a9050612b8b87828585612ba7565b94509450505050612ba0565b60006002915091505b9250929050565b6000807f7fffffffffffffffffffffffffffffff5d576e7357a4501ddfe92f46681b20a08360001c1115612be2576000600391509150612c80565b600060018787878760405160008152602001604052604051612c079493929190614d5d565b6020604051602081039080840390855afa158015612c29573d6000803e3d6000fd5b505050602060405103519050600073ffffffffffffffffffffffffffffffffffffffff168173ffffffffffffffffffffffffffffffffffffffff1603612c7757600060019250925050612c80565b80600092509250505b94509492505050565b5080546000825590600052602060002090810190612ca79190612d66565b50565b60405180608001604052806000815260200160008152602001600067ffffffffffffffff168152602001606081525090565b828054828255906000526020600020908101928215612d55579160200282015b82811115612d545782518260006101000a81548173ffffffffffffffffffffffffffffffffffffffff021916908373ffffffffffffffffffffffffffffffffffffffff16021790555091602001919060010190612cfc565b5b509050612d629190612d66565b5090565b5b80821115612d7f576000816000905550600101612d67565b5090565b6000604051905090565b600080fd5b600080fd5b600073ffffffffffffffffffffffffffffffffffffffff82169050919050565b6000612dc282612d97565b9050919050565b612dd281612db7565b8114612ddd57600080fd5b50565b600081359050612def81612dc9565b92915050565b600080fd5b600080fd5b600080fd5b60008083601f840112612e1a57612e19612df5565b5b8235905067ffffffffffffffff811115612e3757612e36612dfa565b5b602083019150836020820283011115612e5357612e52612dff565b5b9250929050565b6000819050919050565b612e6d81612e5a565b8114612e7857600080fd5b50565b600081359050612e8a81612e64565b92915050565b60008115159050919050565b612ea581612e90565b8114612eb057600080fd5b50565b600081359050612ec281612e9c565b92915050565b600080600080600060808688031215612ee457612ee3612d8d565b5b6000612ef288828901612de0565b955050602086013567ffffffffffffffff811115612f1357612f12612d92565b5b612f1f88828901612e04565b94509450506040612f3288828901612e7b565b9250506060612f4388828901612eb3565b9150509295509295909350565b6000601f19601f8301169050919050565b7f4e487b7100000000000000000000000000000000000000000000000000000000600052604160045260246000fd5b612f9982612f50565b810181811067ffffffffffffffff82111715612fb857612fb7612f61565b5b80604052505050565b6000612fcb612d83565b9050612fd78282612f90565b919050565b600067ffffffffffffffff821115612ff757612ff6612f61565b5b602082029050602081019050919050565b600080fd5b600080fd5b600080fd5b600067ffffffffffffffff82111561303257613031612f61565b5b61303b82612f50565b9050602081019050919050565b82818337600083830152505050565b600061306a61306584613017565b612fc1565b90508281526020810184848401111561308657613085613012565b5b613091848285613048565b509392505050565b600082601f8301126130ae576130ad612df5565b5b81356130be848260208601613057565b91505092915050565b6000604082840312156130dd576130dc613008565b5b6130e76040612fc1565b905060006130f784828501612de0565b600083015250602082013567ffffffffffffffff81111561311b5761311a61300d565b5b61312784828501613099565b60208301525092915050565b600061314661314184612fdc565b612fc1565b9050808382526020820190506020840283018581111561316957613168612dff565b5b835b818110156131b057803567ffffffffffffffff81111561318e5761318d612df5565b5b80860161319b89826130c7565b8552602085019450505060208101905061316b565b5050509392505050565b600082601f8301126131cf576131ce612df5565b5b81356131df848260208601613133565b91505092915050565b60008060008060008060a0878903121561320557613204612d8d565b5b600061321389828a01612de0565b965050602087013567ffffffffffffffff81111561323457613233612d92565b5b61324089828a01612e04565b9550955050604061325389828a01612e7b565b935050606087013567ffffffffffffffff81111561327457613273612d92565b5b61328089828a016131ba565b925050608061329189828a01612eb3565b9150509295509295509295565b600080600080608085870312156132b8576132b7612d8d565b5b60006132c687828801612de0565b94505060206132d787828801612de0565b93505060406132e887828801612de0565b92505060606132f987828801612e7b565b91505092959194509250565b60008060008060006080868803121561332157613320612d8d565b5b600061332f88828901612de0565b955050602086013567ffffffffffffffff8111156133505761334f612d92565b5b61335c88828901612e04565b9450945050604061336f88828901612e7b565b925050606061338088828901612e7b565b9150509295509295909350565b600081519050919050565b600082825260208201905092915050565b60005b838110156133c75780820151818401526020810190506133ac565b60008484015250505050565b60006133de8261338d565b6133e88185613398565b93506133f88185602086016133a9565b61340181612f50565b840191505092915050565b6000602082019050818103600083015261342681846133d3565b905092915050565b60006020828403121561344457613443612d8d565b5b600061345284828501612de0565b91505092915050565b61346481612e5a565b82525050565b600060208201905061347f600083018461345b565b92915050565b6000806000806000608086880312156134a1576134a0612d8d565b5b60006134af88828901612de0565b95505060206134c088828901612de0565b945050604086013567ffffffffffffffff8111156134e1576134e0612d92565b5b6134ed88828901612e04565b9350935050606061350088828901612e7b565b9150509295509295909350565b61351681612e90565b82525050565b6000602082019050613531600083018461350d565b92915050565b61354081612e5a565b82525050565b600067ffffffffffffffff82169050919050565b61356381613546565b82525050565b600081519050919050565b600082825260208201905092915050565b6000819050602082019050919050565b61359e81612db7565b82525050565b60006135b08383613595565b60208301905092915050565b6000602082019050919050565b60006135d482613569565b6135de8185613574565b93506135e983613585565b8060005b8381101561361a57815161360188826135a4565b975061360c836135bc565b9250506001810190506135ed565b5085935050505092915050565b600060808301600083015161363f6000860182613537565b5060208301516136526020860182613537565b506040830151613665604086018261355a565b506060830151848203606086015261367d82826135c9565b9150508091505092915050565b600060208201905081810360008301526136a48184613627565b905092915050565b600080604083850312156136c3576136c2612d8d565b5b60006136d185828601612de0565b92505060206136e285828601612e7b565b9150509250929050565b6000819050919050565b6136ff816136ec565b82525050565b600060208201905061371a60008301846136f6565b92915050565b6000806000806060858703121561373a57613739612d8d565b5b600061374887828801612de0565b945050602085013567ffffffffffffffff81111561376957613768612d92565b5b61377587828801612e04565b9350935050604061378887828801612e7b565b91505092959194509250565b6000806000606084860312156137ad576137ac612d8d565b5b60006137bb86828701612de0565b93505060206137cc86828701612de0565b92505060406137dd86828701612e7b565b9150509250925092565b600081519050919050565b600082825260208201905092915050565b600061380e826137e7565b61381881856137f2565b93506138288185602086016133a9565b61383181612f50565b840191505092915050565b600060208201905081810360008301526138568184613803565b905092915050565b613867816136ec565b811461387257600080fd5b50565b6000813590506138848161385e565b92915050565b600080600080608085870312156138a4576138a3612d8d565b5b60006138b287828801612de0565b94505060206138c387828801613875565b93505060406138d487828801612de0565b925050606085013567ffffffffffffffff8111156138f5576138f4612d92565b5b61390187828801613099565b91505092959194509250565b6000806040838503121561392457613923612d8d565b5b600061393285828601612de0565b925050602061394385828601612de0565b9150509250929050565b600082825260208201905092915050565b600061396982613569565b613973818561394d565b935061397e83613585565b8060005b838110156139af57815161399688826135a4565b97506139a1836135bc565b925050600181019050613982565b5085935050505092915050565b600060208201905081810360008301526139d6818461395e565b905092915050565b7f534d3a2073656e646572206e6f74206120677561726469616e00000000000000600082015250565b6000613a146019836137f2565b9150613a1f826139de565b602082019050919050565b60006020820190508181036000830152613a4381613a07565b9050919050565b7f534d3a206f776e6572732063616e6e6f7420626520656d707479000000000000600082015250565b6000613a80601a836137f2565b9150613a8b82613a4a565b602082019050919050565b60006020820190508181036000830152613aaf81613a73565b9050919050565b7f534d3a20696e76616c6964206e6577207468726573686f6c6400000000000000600082015250565b6000613aec6019836137f2565b9150613af782613ab6565b602082019050919050565b60006020820190508181036000830152613b1b81613adf565b9050919050565b7f534d3a20636f6e6669726d6564207369676e617475726573206c65737320746860008201527f616e207468726573686f6c640000000000000000000000000000000000000000602082015250565b6000613b7e602c836137f2565b9150613b8982613b22565b604082019050919050565b60006020820190508181036000830152613bad81613b71565b9050919050565b7f534d3a20656d707479207369676e617475726573000000000000000000000000600082015250565b6000613bea6014836137f2565b9150613bf582613bb4565b602082019050919050565b60006020820190508181036000830152613c1981613bdd565b9050919050565b7f534d3a20656d70747920677561726469616e7300000000000000000000000000600082015250565b6000613c566013836137f2565b9150613c6182613c20565b602082019050919050565b60006020820190508181036000830152613c8581613c49565b9050919050565b7f4e487b7100000000000000000000000000000000000000000000000000000000600052603260045260246000fd5b7f534d3a206e756c6c207369676e61747572652073686f756c642068617665207460008201527f6865207369676e6572206173207468652073656e646572000000000000000000602082015250565b6000613d176037836137f2565b9150613d2282613cbb565b604082019050919050565b60006020820190508181036000830152613d4681613d0a565b9050919050565b7f534d3a206475706c6963617465207369676e6572732f696e76616c6964206f7260008201527f646572696e670000000000000000000000000000000000000000000000000000602082015250565b6000613da96026836137f2565b9150613db482613d4d565b604082019050919050565b60006020820190508181036000830152613dd881613d9c565b9050919050565b7f4e487b7100000000000000000000000000000000000000000000000000000000600052601160045260246000fd5b6000613e1982612e5a565b91507fffffffffffffffffffffffffffffffffffffffffffffffffffffffffffffffff8203613e4b57613e4a613ddf565b5b600182019050919050565b7f534d3a20756e617574686f72697a656400000000000000000000000000000000600082015250565b6000613e8c6010836137f2565b9150613e9782613e56565b602082019050919050565b60006020820190508181036000830152613ebb81613e7f565b9050919050565b7f534d3a206d757374206265206578697374696e6720677561726469616e000000600082015250565b6000613ef8601d836137f2565b9150613f0382613ec2565b602082019050919050565b60006020820190508181036000830152613f2781613eeb565b9050919050565b613f3781612db7565b82525050565b6000602082019050613f526000830184613f2e565b92915050565b600081519050613f6781612e64565b92915050565b600060208284031215613f8357613f82612d8d565b5b6000613f9184828501613f58565b91505092915050565b6000613fa582612e5a565b9150613fb083612e5a565b9250828203905081811115613fc857613fc7613ddf565b5b92915050565b7f534d3a20696e76616c6964207468726573686f6c640000000000000000000000600082015250565b60006140046015836137f2565b915061400f82613fce565b602082019050919050565b6000602082019050818103600083015261403381613ff7565b9050919050565b600060608201905061404f6000830186613f2e565b61405c6020830185613f2e565b6140696040830184613f2e565b949350505050565b60006040820190506140866000830185613f2e565b614093602083018461345b565b9392505050565b600081905092915050565b6000819050919050565b6140b881612db7565b82525050565b60006140ca83836140af565b60208301905092915050565b60006140e56020840184612de0565b905092915050565b6000602082019050919050565b6000614106838561409a565b9350614111826140a5565b8060005b8581101561414a5761412782846140d6565b61413188826140be565b975061413c836140ed565b925050600181019050614115565b5085925050509392505050565b60006141648284866140fa565b91508190509392505050565b600060a08201905061418560008301886136f6565b6141926020830187613f2e565b61419f60408301866136f6565b6141ac606083018561345b565b6141b9608083018461345b565b9695505050505050565b60007fff0000000000000000000000000000000000000000000000000000000000000082169050919050565b6000819050919050565b61420a614205826141c3565b6141ef565b82525050565b6000819050919050565b61422b614226826136ec565b614210565b82525050565b600061423d82876141f9565b60018201915061424d82866141f9565b60018201915061425d828561421a565b60208201915061426d828461421a565b60208201915081905095945050505050565b7f534d3a206e6f206f6e676f696e67207265636f76657279000000000000000000600082015250565b60006142b56017836137f2565b91506142c08261427f565b602082019050919050565b600060208201905081810360008301526142e4816142a8565b9050919050565b7f534d3a207265636f7665727920706572696f64207374696c6c2070656e64696e60008201527f6700000000000000000000000000000000000000000000000000000000000000602082015250565b60006143476021836137f2565b9150614352826142eb565b604082019050919050565b600060208201905081810360008301526143768161433a565b9050919050565b600067ffffffffffffffff82111561439857614397612f61565b5b602082029050602081019050919050565b6000815190506143b881612dc9565b92915050565b60006143d16143cc8461437d565b612fc1565b905080838252602082019050602084028301858111156143f4576143f3612dff565b5b835b8181101561441d578061440988826143a9565b8452602084019350506020810190506143f6565b5050509392505050565b600082601f83011261443c5761443b612df5565b5b815161444c8482602086016143be565b91505092915050565b60006020828403121561446b5761446a612d8d565b5b600082015167ffffffffffffffff81111561448957614488612d92565b5b61449584828501614427565b91505092915050565b6000819050919050565b6000819050919050565b60006144cd6144c86144c38461449e565b6144a8565b612e5a565b9050919050565b6144dd816144b2565b82525050565b60006060820190506144f86000830186613f2e565b6145056020830185613f2e565b61451260408301846144d4565b949350505050565b6000819050919050565b600061453f61453a6145358461451a565b6144a8565b612e5a565b9050919050565b61454f81614524565b82525050565b7f4e487b7100000000000000000000000000000000000000000000000000000000600052602160045260246000fd5b6002811061459557614594614555565b5b50565b60008190506145a682614584565b919050565b60006145b682614598565b9050919050565b6145c6816145ab565b82525050565b60006080820190506145e16000830187613f2e565b6145ee6020830186614546565b818103604083015261460081856133d3565b905061460f60608301846145bd565b95945050505050565b60008151905061462781612e9c565b92915050565b60006020828403121561464357614642612d8d565b5b600061465184828501614618565b91505092915050565b7f534d3a206f776e65722072656d6f76616c206661696c65640000000000000000600082015250565b60006146906018836137f2565b915061469b8261465a565b602082019050919050565b600060208201905081810360008301526146bf81614683565b9050919050565b60006146d182612e5a565b9150600082036146e4576146e3613ddf565b5b600182039050919050565b7f534d3a206e6577206f776e65722063616e6e6f7420626520677561726469616e600082015250565b60006147256020836137f2565b9150614730826146ef565b602082019050919050565b6000602082019050818103600083015261475481614718565b9050919050565b7f534d3a206f776e6572207265706c6163656d656e74206661696c656400000000600082015250565b6000614791601c836137f2565b915061479c8261475b565b602082019050919050565b600060208201905081810360008301526147c081614784565b9050919050565b60006040820190506147dc6000830185613f2e565b6147e960208301846144d4565b9392505050565b7f534d3a206f776e6572206164646974696f6e206661696c656400000000000000600082015250565b60006148266019836137f2565b9150614831826147f0565b602082019050919050565b6000602082019050818103600083015261485581614819565b9050919050565b7f534d3a206368616e6765207468726573686f6c64206661696c65640000000000600082015250565b6000614892601b836137f2565b915061489d8261485c565b602082019050919050565b600060208201905081810360008301526148c181614885565b9050919050565b60006148d382613569565b6148dd818561409a565b93506148e883613585565b8060005b8381101561491957815161490088826140be565b975061490b836135bc565b9250506001810190506148ec565b5085935050505092915050565b600061493282846148c8565b915081905092915050565b6000604082019050614952600083018561345b565b61495f602083018461345b565b9392505050565b600060408201905061497b6000830185613f2e565b6149886020830184613f2e565b9392505050565b7f534d3a205369676e6572206e6f74206120677561726469616e00000000000000600082015250565b60006149c56019836137f2565b91506149d08261498f565b602082019050919050565b600060208201905081810360008301526149f4816149b8565b9050919050565b7f534d3a20496e76616c696420677561726469616e207369676e61747572650000600082015250565b6000614a31601e836137f2565b9150614a3c826149fb565b602082019050919050565b60006020820190508181036000830152614a6081614a24565b9050919050565b600081905092915050565b6000614a7d826137e7565b614a878185614a67565b9350614a978185602086016133a9565b80840191505092915050565b6000614aaf8284614a72565b915081905092915050565b6000614ad5614ad0614acb84612d97565b6144a8565b612d97565b9050919050565b6000614ae782614aba565b9050919050565b6000614af982614adc565b9050919050565b614b0981614aee565b82525050565b600060a082019050614b2460008301886136f6565b614b3160208301876136f6565b614b3e60408301866136f6565b614b4b606083018561345b565b614b586080830184614b00565b9695505050505050565b7f534d3a206e6f7420656e6f75676820617070726f76616c7320666f722072657060008201527f6c6163656d656e74000000000000000000000000000000000000000000000000602082015250565b6000614bbe6028836137f2565b9150614bc982614b62565b604082019050919050565b60006020820190508181036000830152614bed81614bb1565b9050919050565b6000614bff82612e5a565b9150614c0a83612e5a565b9250828201905080821115614c2257614c21613ddf565b5b92915050565b614c3181613546565b82525050565b6000608082019050614c4c600083018761345b565b614c59602083018661345b565b614c666040830185614c28565b614c73606083018461345b565b95945050505050565b6000604082019050614c9160008301856136f6565b8181036020830152614ca381846133d3565b90509392505050565b600081905092915050565b6000614cc28261338d565b614ccc8185614cac565b9350614cdc8185602086016133a9565b80840191505092915050565b6000614cf48284614cb7565b915081905092915050565b600081519050614d0e8161385e565b92915050565b600060208284031215614d2a57614d29612d8d565b5b6000614d3884828501614cff565b91505092915050565b600060ff82169050919050565b614d5781614d41565b82525050565b6000608082019050614d7260008301876136f6565b614d7f6020830186614d4e565b614d8c60408301856136f6565b614d9960608301846136f6565b9594505050505056fea264697066735822122094839f339c8323336714dd7504e1abedb2d56bb28175f954f1fdd4000d5b162164736f6c63430008110033",
  "linkReferences": {},
  "deployedLinkReferences": {}
}